:020000040000fa
:080000000002040000000000f2
:020000040000fa
:100008009a0200009a0200009a0200009a02000078
:100018009a0200009a0200009a0200009a02000068
:100028009a0200009a0200009a0200009a02000058
:100038009a0200009a0200009a0200009a02000048
:100048009a0200009a0200009a0200009a02000038
:100058009a0200009a0200009a0200009a02000028
:100068009a0200009a0200009a020000ea070000c3
:100078009a0200009a0200009a0200009a02000008
:100088009a0200009a0200009a0200009a020000f8
:100098009a0200009a0200009a0200009a020000e8
:1000a8009a0200009a0200009a0200009a020000d8
:1000b8009a0200009a0200009a0200009a020000c8
:1000c8009a0200009a0200009a0200009a020000b8
:1000d8009a0200009a0200009a0200009a020000a8
:1000e8009a0200009a0200009a0200009a02000098
:1000f8009a0200009a0200009a0200009a02000088
:100108009a0200009a0200009a0200009a02000077
:100118009a0200009a0200009a0200009a02000067
:100128009a0200009a0200009a0200009a02000057
:100138009a0200009a0200009a0200009a02000047
:100148009a0200009a0200009a0200009a02000037
:100158009a0200009a0200009a0200009a02000027
:100168009a0200009a0200009a0200009a02000017
:100178009a0200009a0200009a0200009a02000007
:100188009a0200009a0200009a0200009a020000f7
:100198009a0200009a0200009a0200009a020000e7
:1001a8009a0200009a0200009a0200009a020000d7
:1001b8009a0200009a0200009a0200009a020000c7
:1001c8009a0200009a0200009a0200009a020000b7
:1001d8009a0200009a0200009a0200009a020000a7
:1001e8009a0200009a0200009a0200009a02000097
:0801f8009a0200009a020000c7
:020000040000fa
:100208009a0200009a0200009a0200009a02000076
:100218009a0200009a0200009a0200009a02000066
:100228009a0200009a0200009a0200009a02000056
:100238009a0200009a0200009a0200009a02000046
:100248009a0200009a0200009a0200009a02000036
:100258009a0200009a0200009a0200009a02000026
:100268009a0200009a0200009a020000ea070000c1
:100278009a0200009a0200009a0200009a02000006
:100288009a0200009a0200009a0200009a020000f6
:100298009a0200009a0200009a0200009a020000e6
:1002a8009a0200009a0200009a0200009a020000d6
:1002b8009a0200009a0200009a0200009a020000c6
:1002c8009a0200009a0200009a0200009a020000b6
:1002d8009a0200009a0200009a0200009a020000a6
:1002e8009a0200009a0200009a0200009a02000096
:1002f8009a0200009a0200009a0200009a02000086
:100308009a0200009a0200009a0200009a02000075
:100318009a0200009a0200009a0200009a02000065
:100328009a0200009a0200009a0200009a02000055
:100338009a0200009a0200009a0200009a02000045
:100348009a0200009a0200009a0200009a02000035
:100358009a0200009a0200009a0200009a02000025
:100368009a0200009a0200009a0200009a02000015
:100378009a0200009a0200009a0200009a02000005
:100388009a0200009a0200009a0200009a020000f5
:100398009a0200009a0200009a0200009a020000e5
:1003a8009a0200009a0200009a0200009a020000d5
:1003b8009a0200009a0200009a0200009a020000c5
:1003c8009a0200009a0200009a0200009a020000b5
:1003d8009a0200009a0200009a0200009a020000a5
:1003e8009a0200009a0200009a0200009a02000095
:0803f8009a0200009a020000c5
:020000040000fa
:100400002f8020000e7f22000e01880000000000d7
:10041000000020000000e000020032000001200087
:10042000200288000c000700808a200001002000c4
:1004300011000700000020000000e0000200320070
:100440000000020000000000f206020000000000b0
:100450000040da000000fe004440a900a002200095
:100460000000e0000300320000002000a00188002e
:100470004440a80000000600910188008000780038
:100480000000eb0015003700e280400032a0b4000d
:100490009101ba00e280400032a0b4009102ba009b
:1004a000e280400032a0b4000002eb00472bde00e7
:1004b000f507b200602ce10004003a000059eb009f
:1004c0008301e900fdff3e00040037006128e100e0
:1004d000010032000082eb00040007001101ba00a5
:1004e0000200e000e8ff3a00000006003159ba00bf
:1004f0008301e9000c0032002159ba008301e900b0
:10050000080032000400e00003003a00e2804000ee
:1005100032a0b400f5ff370011d9ba008301e90019
:10052000faff3a008100e800e180400032a0b40008
:0c053000000006000040da000000fe00a1
:020000040000fa
:10053c00456e000074650000723a00000053000024
:10054c0065740000204d00006f640000653a0000e7
:10055c00004900006e760000616c000069640000c8
:10056c0000000000486500006c6c00006f2100006a
:10057c0000300000303a0000303000003a3000000b
:04058c00300000003b
:020000040000fa
:100590000800fa00004f7800110798002207980021
:1005a000330798003e029000e00f52000500320031
:1005b0009e4278000582fb004c22dd006416880014
:1005c000070037009e4278000582fb004422de00cf
:1005d000044278000482fb004c22dd00641688008f
:1005e0001e02900004427800614262000482fb0017
:1005f000610262004722dd0066168000f5f72f00d9
:100600008502630005027200641688001000200055
:10061000a4020700ccc2a80010002000a10207001d
:10062000ccc2a900100020009e0207002e009000fe
:100630009c0207000080fa00000006000600fa0095
:10064000004f780011079800220798008001eb0006
:100650002e0190009e0090001e407800ccff070005
:10066000130020002e0190009e0090001e40780094
:10067000c7ff07000080fa00000006000200fa0031
:10068000004f78001e427800e20220001100200096
:1006900004407800e9ff07000080fa00000006002f
:1006a0000000fa00c8e2a900c8c2a900c9e2a90076
:1006b000c9c2a900c9a2a900c982a90080a92300b2
:1006c0007802070013002000420021008000eb00a8
:1006d00030c0b300aeff0700130020004206200028
:1006e0008000eb0030c0b300a9ff070042062000e5
:1006f0008000eb0020c3b300d0ff0700820220007f
:100700008000eb0080c2b300ccff07008202200013
:100710008000eb0080c0b300c8ff070082662000a5
:100720008000eb0010c0b300c4ff0700820220006d
:100730008000eb0060c0b300c0ff07008202200011
:100740008000eb00c0c0b300bcff07000080fa00cf
:10075000000006000400fa00100798000002eb00f9
:10076000040f7800070037001e0278009e029000f8
:10077000048242001442780004407800bfff070062
:100780001e0fe8001e0278009e02900004824200c4
:1007900014427800e04f5200f3ff3a000080fa0064
:1007a000000006000000fa00826620008000eb00d6
:1007b00010c0b300a1ff07000080fa00000006008f
:1007c0000400fa00204798003147980004082000f0
:1007d000040f78003e4290000482fb001e0f42008e
:1007e0002e429000e14f520002003a000404200023
:1007f0001e0f42001e027800044278008202200090
:100800008000eb00044078008cff07000080fa00b5
:10081000000006000200fa00a1ff07000002eb0042
:10082000040f780030c6b30094ff07000002eb000d
:10083000040f780003003700803e200019020700f3
:100840001e0fe800743e20009e027800848f520044
:10085000f9ff3400d3ff0700802b2800bdff0700fd
:1008600021c0b30010c0b300d5ff07000002eb00a9
:10087000040f780003003700803e200009020700c3
:100880001e0fe800743e20009e027800848f520004
:10089000f9ff3400802b2800aeff07000002eb00b8
:1008a000040f780003003700803e2000fd010700a0
:1008b0001e0fe800743e20009e027800848f5200d4
:1008c000f9ff34000080fa00000006000e00fa0074
:1008d00010079800210798003207980043079800f6
:1008e0005407980065079800f42b2800040f78003f
:1008f0001e029000844278001e027800054a7800ab
:100900001e02e800ae02900085427800054a780099
:100910009e02780063824200be0290008542780009
:10092000054a78009e02780064824200ce02900060
:1009300085427800054a78009e027800668242006f
:10094000de02900085427800054a78009e02780019
:1009500067824200ee02900085427800054a7800e6
:100960001e0078007bff07001e027800040078005c
:100970000080fa00000006000c00fa00000f78006a
:100980001107980022079800330798004407980041
:10099000550798005e029000044278000443b000be
:1009a0000440780035ff07004e02900004427800b2
:1009b0000443b0000440780030ff0700a0c3b30038
:1009c0002eff07003e029000044278000443b0006e
:1009d0000440780029ff07002e02900004427800ae
:1009e0000443b0000440780024ff0700a0c3b30014
:1009f00022ff07001e029000044278000443b0006a
:100a0000044078001dff07001e02780004427800b1
:100a10000443b0000440780018ff07000080fa008b
:100a2000000006000000fa00c002a900c022a900d0
:100a3000c842a900c862a900c8a2a800c962a8004b
:100a4000c942a800c602a800c622a800ce42a8003b
:100a5000ce62a800c402a900c422a900cc42a8000a
:100a6000cc62a8006b60a80069e0a8006a00a8003a
:100a70006360a80061e0a8006200a8000080fa009e
:100a8000000006000000fa00c402a900c422a90068
:100a9000cc42a900cc62a9000080fa000000060048
:100aa0000200fa00000f78001e027800e10f5200e9
:100ab00005003a00c402a900c422a800cc42a80044
:100ac000cc62a800170037001e027800e20f520027
:100ad00005003a00c402a800c422a900cc42a80024
:100ae000cc62a8000f0037001e027800e30f52000e
:100af00005003a00c402a800c422a800cc42a90004
:100b0000cc62a800070037001e027800e40f5200f4
:100b100004003a00c402a800c422a800cc42a800e5
:100b2000cc62a9000080fa00000006000200fa0072
:100b300000c2eb00044f780010002000d8ff07002f
:100b400080fc2a0001002000560107005516800095
:100b50000480200004826200e00f520004003a008a
:100b600014c3b300044f78001e42780073003700ae
:100b7000551680000440200004826200e00f5200fd
:100b800004003a0024c3b300044f78001e427800ea
:100b90006a003700551680000402200004826200bb
:100ba000e00f520004003a0034c3b300044f780051
:100bb0001e4278006100370020002000b8ff0700c7
:100bc00080fc2a0001002000360107005516800035
:100bd0000480200004826200e00f520004003a000a
:100be00044c3b300044f78001e427800530037001e
:100bf000551680000440200004826200e00f52007d
:100c000004003a0054c3b300044f78001e42780039
:100c10004a0037005516800004022000048262005a
:100c2000e00f520004003a0064c3b300044f7800a0
:100c30001e427800410037003000200098ff070076
:100c400080fc2a00010020001601070055168000d4
:100c50000480200004826200e00f520004003a0089
:100c600074c3b300044f78001e427800330037008d
:100c7000551680000440200004826200e00f5200fc
:100c800004003a0084c3b300044f78001e42780089
:100c90002a003700551680000402200004826200fa
:100ca000e00f520004003a0094c3b300044f7800f0
:100cb0001e427800210037004000200078ff070026
:100cc00080fc2a0001002000f60007005516800075
:100cd0000480200004826200e00f520004003a0009
:100ce000a4c2b300044f78001e42780013003700fe
:100cf000551680000440200004826200e00f52007c
:100d000004003a0004c3b300044f78001e42780088
:100d10000a00370055168000040220000482620099
:100d2000e00f520004003a0034c2b300044f7800d0
:100d30001e427800010037001e427800044078000f
:100d40000080fa00000006000400fa00004f78005e
:100d500011079800a4c2b3009e42780084cf5200cd
:100d600004003a001e0290000402e80014079800f4
:100d7000030037001e0290000402e90014079800e7
:100d80001e029000040078000080fa0000000600b7
:100d90000400fa00204798000002eb00040f7800de
:100da000ae429000a4c2b30084cf520004003200cf
:100db000ae42900034c2b30084cf520003003a0028
:100dc0000002eb00040f780002003700140020003e
:100dd000040f78001e027800040078000080fa00fa
:100de000000006000c00fa000eff07002cfe0700b2
:100df0000002eb00040f78000002eb0024079800cb
:100e00000002eb00340798000002eb001407980082
:100e10000002eb00440798009660a8008660a900d5
:100e200000c2eb00244f9800044080000500200021
:100e30006600200007002000860f5200878f5a00ae
:100e400062003e0004600100060037001100370018
:100e5000110037001b0037003a0037003a00370016
:100e60003e0037004ffe07008040eb000040eb00e3
:100e700053fe0700e029280036fe07008040eb0003
:100e800010c0b3004efe070014002000044088008c
:100e90004f0037004e00370000712200810007002c
:100ea0001e029000e00f520003003a0034002000c0
:100eb00004408800020037006400200004408800dd
:100ec0004300370019ff070000427800244f9800c4
:100ed0009e0078002e4890009bff070000027800db
:100ee000040f78002e489000e4fd0700e5fe07009f
:100ef0009660a8001e027800e20f52000c003a0033
:100f000028fe07008040eb000040eb002cfe0700ad
:100f1000502a28000ffe07008040eb0010c0b300ed
:100f200027fe070014002000140798000200370075
:100f30000002eb00140798004400200004408800e1
:100f400023003700220037000071220055000700ff
:100f500014002000044088001d003700f3fe070045
:100f600000427800244f98002e48900088ff070028
:100f700000027800340798002e489000bffd07005b
:100f8000c0fe07009660a8003e029000e00f5200ed
:100f90000b003a0003fe07008040eb000040eb002e
:100fa00007fe0700f02a2800eafd070000e22400ff
:100fb0003c0007000002eb000440880002003700fc
:100fc00044002000044088000100370000000000b9
:100fd00095ff3700849fbe003400f8000400200015
:100fe000a40188000000fa008660a9005516800060
:100ff0000480200004826200e00f52000a003200e8
:10100000551680000440200004826200e00f520068
:1010100005003200551680000402200004826200a0
:10102000e00f520003003a00240020000440880032
:101030000200370054002000044088000080fa00bd
:101040003400f9004f02be00004006000000fa0024
:10105000f40f2e00140888000002eb00040888003a
:10106000240880000440a0000450a0002408880048
:101070008460a9009460a80005e1a8000080fa003f
:10108000000006000000fa0084e0a9008408800047
:101090000440a1000450a100840888000080fa00e8
:1010a000000006000200fa00000f780084e0a900aa
:1010b000840880000440a1000450a1008408880036
:1010c0000002eb00340888001e0278006e22b9008e
:1010d000040278006408880011e1a80004003700c9
:1010e0003508800064088000848f520006003e00ae
:1010f000250480000408200004826200e00f5200f2
:10110000f7ff3200010037000000000011e1a900e4
:101110000080fa00000006000000fa00f40f2e0024
:10112000740888000002eb005408880094088000ce
:101130000440a0000450a000940888008500a90085
:101140009500a80013e1a8000080fa000000060046
:020000040000fa
:101150000008000002000000000000000000000085
:020000040000fa
:020000040001f9
:0457f800ad7b000085
:020000040000fa
:020000040001f9
:0457fc003f3f00002b
:00000001FF
